:020000041000EA
:1020000000F80F08890206100D000000FD020610FE
:10201000FD020610FD020610FD0206100000000081
:10202000000000000000000000000000C13A07109E
:10203000F902061000000000613B0710613A07102A
:10204000F9020610F9020610F9020610F90206104C
:10205000F9020610F9020610F9020610F90206103C
:10206000F9020610F9020610F9020610F90206102C
:10207000F9020610F9020610F9020610F90206101C
:1022E0000348044B834202D0034B03B118477047A5
:1022F000C0300008C0300008000000000548064B50
:102300001B1AD90F01EBA301491002D0034B03B1F3
:1023100018477047C0300008C030000800000000B7
:1023200010B5064C237843B9FFF7DAFF044B13B11D
:102330000448AFF300800123237010BDAC310008C6
:102340000000000014A9121008B5044B1BB1044989
:102350000448AFF30080BDE80840CFE7000000006C
:10236000B031000814A9121080B485B000AF7860B5
:10237000074BFB60FB681A687B681A60FB687A6829
:102380001A60002318461437BD465DF8047B704779
:10239000DC31000880B483B000AF064B7B607B6803
:1023A0001B681A687B681A6000BF0C37BD465DF871
:1023B000047B7047DC31000880B485B000AF7860E2
:1023C0003960094BFB60FB681A687B681A607B68A0
:1023D0003A685A60FB687A681A6000BF1437BD46D5
:1023E0005DF8047B704700BFE031000880B584B021
:1023F00000AF0346FB710A4BFB60FB681B68BB60C8
:10240000FB681B681A68FB681A60FB79002B03D015
:10241000BB685B68B868984700BF1037BD4680BD91
:10242000E031000880B584B000AF7860094BFB60F4
:1024300002E00120FFF7DAFFFB681B68002B04D0E5
:10244000FB681B687A689A42F3D800BF1037BD4614
:1024500080BD00BFE0310008C4600561466187614E
:10246000C0F81C80C0F82090C0F824A0C0F828B0A4
:10247000C0F82CD080ED0C8B80ED0E9B80ED10AB66
:10248000C0F808E0FFF770BF124D6C6908B50CB9D1
:102490005DF014FD60602046FFF7C4FF23686B61A8
:1024A0002046C468056946698769D0F81C80D0F861
:1024B0002090D0F824A0D0F828B0D0F82CD090EDFF
:1024C0000C8B90ED0E9B90ED10ABD0F808E0012046
:1024D000704700BFC831000880B584B000AF786095
:1024E0000021786800F08CFCF860FB68002B05D1B7
:1024F0007B68002B02D078681DF024FC114BD3F8C8
:1025000068237B6813440F4AC2F868330D4BD3F835
:102510006C237B6813440B4AC2F86C33094BD3F825
:102520006C23084BD3F870339A4205D9054BD3F886
:102530006C33044AC2F87033FB6818461037BD4646
:1025400080BD00BFC831000880B584B000AF78609E
:102550000021786800F054FCF860114BD3F8682330
:102560007B6813440E4AC2F868330D4BD3F86C23D2
:102570007B6813440A4AC2F86C33094BD3F86C23C6
:10258000074BD3F870339A4205D9054BD3F86C3317
:10259000034AC2F87033FB6818461037BD4680BD49
:1025A000C831000880B584B000AF78600121786838
:1025B00000F026FCF860FB68002B05D17B68002B3F
:1025C00002D078681DF0BEFB114BD3F868237B68FE
:1025D00013440F4AC2F868330D4BD3F86C237B6861
:1025E00013440B4AC2F86C33094BD3F86C23084BE5
:1025F000D3F870339A4205D9054BD3F86C33044AAB
:10260000C2F87033FB6818461037BD4680BD00BF66
:10261000C831000880B584B000AF78607868FFF7F3
:102620005BFFF860FB6818461037BD4680BD0000B0
:1026300080B586B000AFF860B9607A600122796831
:10264000F86800F05FFD78617B69002B05D17B683D
:10265000002B02D078681DF075FB7A68BB68D31A2E
:102660003B61114BD3F868233B6913440E4AC2F80F
:1026700068330D4BD3F86C233B6913440A4AC2F804
:102680006C33094BD3F86C23074BD3F870339A4261
:1026900005D9054BD3F86C33034AC2F870337B6914
:1026A00018461837BD4680BDC831000880B586B0D1
:1026B00000AFF860B9607A60FB70FB781A46796801
:1026C000F86800F01FFD78617B69002B02D17B6800
:1026D000002B21D17A68BB68D31A3B61114BD3F828
:1026E00068233B6913440F4AC2F868330D4BD3F893
:1026F0006C233B6913440B4AC2F86C33094BD3F883
:102700006C23084BD3F870339A4205D9054BD3F8A4
:102710006C33044AC2F870337B6918461837BD46DB
:1027200080BD00BFC831000880B582B000AF7860BE
:102730003960786800F046FC054BD3F86C233B68A1
:10274000D31A034AC2F86C3300BF0837BD4680BDB8
:10275000C831000880B400AF00BFBD465DF8047BFF
:10276000704780B400AF00BFBD465DF8047B704782
:1027700080B584B000AF786039607B683A6802FB4E
:1027800003F308331846FFF7DFFEF860FB68002B01
:1027900001D1002317E0FFF7DDFF0D4B9B6A002BF3
:1027A00003D00B4B9B6AFA681A60FB6800221A6020
:1027B000074B9A6AFB685A60054AFB689362FFF709
:1027C000D0FFFB68083318461037BD4680BD00BFF8
:1027D000C831000880B584B000AF78607B68002BFA
:1027E00026D07B68083BFB60FFF7B4FFFB685B68A3
:1027F000002B04D0FB685B68FA6812681A60FB68FB
:102800001B68002B05D0FB681B68FA6852685A6089
:1028100003E0FB685B68084A9362FFF7A2FFF86871
:1028200000F03CFC03461946F868FFF77DFF00E026
:1028300000BF1037BD4680BDC831000880B400AF6E
:10284000034BD3F868331846BD465DF8047B7047E8
:10285000C831000880B400AF034BD3F86C3318467E
:10286000BD465DF8047B7047C831000880B400AFF6
:10287000034BD3F870331846BD465DF8047B7047B0
:10288000C8310008DFF8D0C02DE9F04105464FF00F
:10289000030E0020DCF87463002101316C18A308DA
:1028A00004F00302F35C5200134103F00303022B14
:1028B000F3D0DCE9E02302EB0414A3423ED3090188
:1028C00002EB05128C0881B302EB8404136819072C
:1028D00028D1DCF88013994224D8DCF884539D4237
:1028E00020D95B1A9F09DCF87483C3F3011118F82F
:1028F0000760490046FA01F505F00305012D4FEA8E
:1029000013130FD13F280EFA01F146EA010698BFD2
:102910000CEB800108F807609ABF0130C1F89433CE
:10292000CCF890530432A242D0D128B101380CEB3C
:102930008003D3F89453ADE7BDE8F081034B044A1C
:1029400004484FF4F471B8F071F900BF584C0C1002
:10295000F0080D10A84C0C10C831000808B5034A47
:10296000034B04484FF4D671B8F060F900090D101C
:10297000B84C0C10A84C0C1021F00F010A1A10B51D
:10298000013A1A4CD200A4FB0242194C520A4FEAF7
:10299000820CC4E9DD020346C4F88413A1EB821162
:1029A000013213440CF1070CC4F87C3303EBDC0355
:1029B0009942C4F8801313D34FEADC0C002162441F
:1029C000B8F06AFF002301204FF0FF31C4E9E23381
:1029D0002381A4F89404C4F89834C4F89C1410BD5E
:1029E000044B054A0548AA21B8F020F9F32C23FA34
:1029F000C8310008F04C0C1018090D10A84C0C1030
:102A0000024A138902331381704700BFC83100089E
:102A1000024A1389023B1381704700BFC831000886
:102A2000024B1889003818BF01207047C8310008D0
:102A3000F8B51E4D2B8913F0010234D143F0010388
:102A40002B81C5F89023C5F8982405F1080405F5F5
:102A50002F7654F8040F030719D1D5F88033984224
:102A600015D3D5F88423904211D2C01A4FEA901C96
:102A7000D5F87473C0F3011317F80C105B0041FA1A
:102A800003F202F00302012A4FEA101002D0A6421C
:102A9000DFD1F8BD032202FA03F3194307F80C1043
:102AA000FFF7F0FEF3E7FFF759FF00BFC83100085A
:102AB00081B3F8B5184E0F46051F002455F8043FA2
:102AC0001A071AD1D6F88023981AC0F3011C9A422B
:102AD0004FEA90114FEA4C0C4FEA10100DD8D6F87F
:102AE00084239A4209D9D6F874E31EF8012042FAE9
:102AF0000CF303F00303012B03D00134A742DDD113
:102B0000F8BD032303FA0CF31A430EF80120FFF774
:102B1000B9FEF2E7704700BFC83100082DE9F04365
:102B20006C4ED6F89033D6F8781383B0002B00F0B3
:102B3000C18089000025C6F890530B46A1B100243E
:102B4000D6F87403A30804F00302C35C52001341D7
:102B500003F00303032B56D001348C420B46EFD312
:102B6000D6F89023002AE6D1D6F88C239A4200F2B8
:102B7000A3804FEAD2084FF000090127D6F87C3332
:102B800013F809404FEAC90524B936E0640805F195
:102B9000010532D0E307F9D5D6F87413AB0805F078
:102BA0000302CB5C5200134103F00303012BEDD170
:102BB000D6F880232B0102EB0510D35873B16A4677
:102BC0004FF404711CF0F0FA009B3BB11DF014FAB5
:102BD000DDE900011DF05EF91DF034FAEB08D6F8CE
:102BE0007C0305F00701C25C07FA01F122EA010249
:102BF0006408C25405F10105CCD1C84509F10103AF
:102C000010D09946BAE72046FFF73CFED6F8781375
:102C1000013489008C420B4692D3D6F89023002AC7
:102C200089D1A1E7D6F88C83D6F87833B8EB830F37
:102C300049D84FF0000EF146724603274FF0020CC0
:102C40000DE0012908D107FA03F320EA03032B550D
:102C5000D6F88C834FF00109013242451BD8D6F8D3
:102C60007453940802F00303285D5B0040FA03F1FB
:102C700001F00301022918D00329E2D10CFA03F371
:102C800020EA03002855D6F88C8396460132424547
:102C90004FF00009E3D93389002223F00103C6E98C
:102CA000E22E338103B0BDE8F083B9F1000FCAD141
:102CB0009646D1E78B0057E7074B084A084840F291
:102CC0004A21B7F0B3FF044B064A05484FF41F7181
:102CD000B7F0ACFFC8310008444D0C10D8080D10F7
:102CE000A84C0C10C0080D10084A08B5138913F041
:102CF000010108D143F001031381BDE80840C2F887
:102D00009013FFF70BBFFFF729FE00BFC831000883
:102D10003A4B2DE9F04FD3E9E0420021121BD3E9F1
:102D2000DD54C0E90111C0E90311C0E905110260D9
:102D30004FEA840C8B460E460C460A468946884666
:102D40008E4615F809304FEA480843FA08F303F0B5
:102D50000303012B48D0022B42D02BB90BF1010BFE
:102D6000C0F808B001361C46013294450DD04FEA38
:102D7000920902F0030815F809304FEA480A43FAAD
:102D80000AF39F07DDD403F00303012C13D0022CB8
:102D900004D1476907F10108C0F814808769A74288
:102DA00038BF8461944511D0012B21D04FEA92099C
:102DB00002F00308C5E7076907F101088769C0F851
:102DC0001080A74238BF84619445EDD1B64500D24A
:102DD000C66009014FEA0B17C0E90117BDE8F08F83
:102DE000013141600134BFE7013141601C46BBE75E
:102DF000B64501D2C660B6460026D7E7C8310008FE
:102E00002DE9F84300F10F06360955D06C4C2389A3
:102E1000002B51D1B4F894240D46002A52D0D4F896
:102E20009814D4F89C2491424AD2D4F88803D4F858
:102E30007813884238BF9E464DD2D4F874C3013807
:102E40000139604461440022CCF1010718E00132ED
:102E500096424BD913F00C0F1ED10132964240F22C
:102E6000A08013F0300F1CD10132964240F29E80B8
:102E70003F2B1AD80132964240F29D80814218D0F1
:102E800007EB000810F8013F13F0030FDFD013F039
:102E90000C0F4FF00002E0D013F0300F4FF00002A3
:102EA000E2D03F2B4FF00002E4D981424FF0000204
:102EB000E6D1BEF1000F0ED000231846BDE8F8831E
:102EC00056F0BEFBD4F88803D4F878138842F3D2C6
:102ED0004FF0010EB1E756F0B3FBD4F88803D4F8F5
:102EE000781381424FF0010EA7D8E5E74FEA880832
:102EF000A8EB0201012A01F1010704D108F1010345
:102F00009B08C4F88833D4F88C33434538BF434614
:102F1000B808C4F88C3307F0030E1CF800904FEA91
:102F20004E0E0123023103FA0EF343EA09038845EA
:102F30000CF8003012D34FF0020E8808D4F874C396
:102F400001F003031CF800905B000EFA03F301315B
:102F500043EA090388450CF80030EED2D4F89834DF
:102F6000D4F880833344C4F8983408EB0713120173
:102F700018460021B8F090FCEA074FEA071603460E
:102F80009BD50022D4F87C0348F80620F9080122DA
:102F9000445C07F00707BA40224342541846BDE894
:102FA000F8834FEA880808F10108A1E74FEA88088A
:102FB00008F102089CE74FEA880808F1030897E740
:102FC000C831000870B5304C218901294DD800283E
:102FD0004BD003074AD1D4F88033834246D8D4F883
:102FE0008423824242D9C01A8509D4F874335A5DC9
:102FF000C0F301135E00324102F00302012A4FEADE
:10300000101C02D0032A38D1B9B3C009D4F87C63AC
:103010000CF0070E325C012101FA0EF122EA0102E6
:103020003254D4F88823D4F87403954238BFC4F8D6
:103030008853415D4FEA9C0E03255B0005FA03F3BC
:1030400021EA030100F80E100CF1010CD4F874030E
:103050004FEA9C0E0CF0030310F80E105A0041FAD0
:1030600002F202F00302022AE7D070BD074B084AC1
:10307000084840F2BE31B7F0D9FD074B044A054875
:1030800040F2C331B7F0D2FDC8310008904D0C10AA
:10309000B8080D10A84C0C10A04D0C10034610F0F1
:1030A0000F001BD1164AD2F88013994218D810B4D9
:1030B000D2F884439C420ED95B1AD2F874439A0921
:1030C000C3F30111A25C49000A4102F00302012A84
:1030D0004FEA131305D05DF8044B7047002070478A
:1030E000704701301A18910802F00302615C520027
:1030F00041FA02F202F00302022AF2D00001EAE7EA
:10310000C83100082DE9F04F884683B007460028F3
:1031100000F0ED80002900F0F1808B4D2B89002B11
:1031200040F0EE8010F00F0140F00081D5F88033C0
:10313000834200F2FB80D5F88403B84240F2F68067
:10314000A7EB030ED5F874434FEA9E19CEF3011B8B
:1031500014F809604FEA4B031E4106F003000128F2
:1031600001904FEA1E1340F0E880D5F8786303F130
:10317000010C08F10F00BCEB860F4FEA10104FEA6C
:10318000860A80F09380019E4FEA9C090CF0030BA5
:1031900014F809904FEA4B0B49FA0BF909F00309AF
:1031A000B9F1020F4FD0B9F1000F04D1013101EB99
:1031B0000609814548D3B04240D04AD331448142C8
:1031C00078D319183344994229D99A0814F802C0BF
:1031D00003F0030252004CFA02FE1EF0030F04EB50
:1031E000930440F09C804FF0020E10E0D5F8744339
:1031F0004FEA930C03F0030214F80CC052004CFA8F
:1032000002F818F0030F04EB930440F088800EFAE4
:1032100002F201334CEA020299422270E6D1D5F85B
:103220008C339942A0EB060238BF1946C5F88C13BF
:10323000120107EB06100021B8F02EFB3C46204699
:1032400003B0BDE8F08F01360CF1010CE2459BD1D3
:10325000B1E71918A6EB0008880801F0030214F87A
:1032600000E052004FF0030C0CFA02F22EEA0202C8
:10327000B8F1010F225401F1010110D033449E46F0
:103280008E08D5F8743301F003029C5D52000CFAED
:1032900002F2013124EA020271459A55F0D1D5F8C3
:1032A0008833834288BFC5F88803C7E70128C5D0A3
:1032B00040B3012622B3D5F87C234FEADE1E03F08B
:1032C000070312F80E10194101F001014046FFF703
:1032D00097FD04460028B2D032013946BAF08AFA86
:1032E0003846FFF76FFE204603B0BDE8F08F014679
:1032F000404603B0BDE8F04FFFF782BDFFF762FE26
:1033000000249CE714F809304FEA4B0B032202FA21
:103310000BF223EA020304F809304846BFE70B4BDF
:103320000B4A0C4840F26F41B7F080FC0A4B084A48
:10333000084840F22541B7F079FC084B044A05489B
:1033400040F22941B7F072FCC8310008504E0C1011
:10335000AC080D10A84C0C10904D0C10284E0C1001
:1033600010B58AB0044603A8FFF7D2FCDDE90430AB
:10337000039A00900749204601F0ECFADDE9083293
:1033800006980549CDE90020079A204601F0E2FAA7
:103390000AB010BD744E0C10984E0C102DE9F84F69
:1033A0004E4F4F49D7F88023804601F0D3FAD7F823
:1033B000781389007AD0DFF85C91DFF85CA10025F2
:1033C00015F03F064FEA950B33D005F00306760063
:1033D000D7F8742312F80B30334103F00303022BA8
:1033E0006CD0032B68D0012B53D1D7F880232B014D
:1033F000D258524564D03B4B9A4263D03A4B9A42E2
:1034000064D03A4B9A425FD0394B9A425CD0394BE8
:103410009A425DD0384B9A425AD0384B9A425BD090
:10342000374B9A4256D0374B9A4214BF68224D22EE
:1034300030E0A94227D9D7F8740310F80B2092077F
:1034400021D12C4605E010F80CC04CFA02F293078B
:1034500008D1013404F003028C424FEA940C4FEA85
:103460004202F0D1621B7F2A0DD9274992094046BA
:1034700001F070FAD7F8783324F03F05B5EB830FED
:1034800014D24FEA950B2A014946404601F062FAF0
:103490009EE72E221D49404601F05CFAD7F87833AA
:1034A0000135B5EB830F4FEA830189D340461849B4
:1034B000BDE8F84F00F053BE6D22EBE73D22E9E78F
:1034C0005422E7E74C22E5E75322E3E74422E1E711
:1034D0004122DFE74222DDE74622DBE7C831000870
:1034E000E04E0C1074BA0D1090A40D102CD20D10DB
:1034F0004CCD0D10749F0D10A89F0D10B0AC0D1089
:10350000A0B10D10D4BB0D10FC4E0C10204F0C10B0
:103510003CE20C10184F0C1080D40D1080B485B014
:1035200000AF7860396041F20553FB607A683B6810
:103530001344BB600AE0FB685A01FB6813447A68D5
:1035400012785340FB607B6801337B607A68BB680C
:103550009A42F0D3FB68DBB2FB60FB68002B02D120
:10356000FB680133FB60FB6818461437BD465DF805
:10357000047B704780B400AF054B064A5A62044B87
:103580000022C3F8C02200BFBD465DF8047B70472F
:10359000C831000890090E1080B584B000AF786083
:1035A000144B5B6AFB6002E0FB681B68FB607B6896
:1035B0001B68FA685268C2F31E029342F4D37B6818
:1035C0001B68FA685268C2F31E029A1A7B681A6076
:1035D0007B681A68FB68DB689A4205D3064B074A8A
:1035E000C6210748B7F022FBFB6818461037BD46D6
:1035F00080BD00BFC8310008F0310D1090490D109A
:1036000000320D1080B588B000AF786039607968FD
:103610003868FFF783FFF8613F4B5B6ADA683E4B1F
:103620005B6A9B689A424AD33B4B5B6A9B685B0030
:10363000BB61BB690A2B38BF0A23BB61BA69134659
:103640005B0013445B0018337B617869FEF77CFFF5
:1036500038613B69002B06D12F4B0022C3F8C022F2
:10366000B8691CF06FFB3B6903F11802BB699B0052
:103670001A443B691A613B691A69BB691A443B6980
:103680005A61254B5A6A3B691A60234B5B6A5B6837
:10369000C3F31E031A46204B5B6ADB68134423F016
:1036A00000413A69536861F31E0353603B69BA698C
:1036B0009A603B690022DA60174A3B695362164BF5
:1036C0005B6ADB68FB60144B5B6A1A69FB68134436
:1036D000FA69D2B21A70104B5B6A5A69FB681344DC
:1036E0007A68D2B21A700C4B5B6AFA680632396893
:1036F00043F82210084B5B6ADA680132DA60064B45
:103700005B6A5B68C3F31E031A46FB6813441846E2
:103710002037BD4680BD00BFC831000880B58AB0E3
:1037200000AF786039603B68002B01D101236CE069
:1037300039687868FFF7F2FE7861364B5B6A7B6226
:103740005FE000233B627B6ADB68013BFB617B6AD5
:10375000DB7923F07F03DBB2002B1DD017E03A6A40
:10376000FB6913445B083B617B6A3A69063253F894
:1037700022303A6819467868BAF0F8FBF860FB68BE
:10378000002B02DC3B69FB6101E03B693B62FA69AB
:103790003B6AD31A012BE2D83B6ABB6129E07B6A02
:1037A0001A69BB6913441B781A467B6993421DD181
:1037B0007B6A5A69BB6913441B781A463B6893427B
:1037C00014D17B6ABA69063253F822303A687968B4
:1037D0001846BAF0C3FE0346002B07D17B6A5B682C
:1037E000C3F31E031A46BB6913440EE0BB690133E1
:1037F000BB61FB690133BA699A42D0D37B6A1B680B
:103800007B627B6A002B9CD1002318462837BD467B
:1038100080BD00BFC831000880B582B000AF7860BD
:103820007868B7F0CDFF03461946786800F0D0F805
:10383000034618460837BD4680BD000080B58AB0F3
:1038400000AFF860B9601346FB71B968F868FFF71C
:1038500065FF78627B6A002B40F0A980BB68FF2B74
:1038600003D9554955481CF085FAFB79002B0DD03A
:10387000FA68BB6813441B78002B00F09280504B11
:10388000504A4FF4A3715048B7F0D0F9BB680133E8
:10389000FB614E4BD3F8C032002B34D04B4BD3F8E6
:1038A000C822FB691A44494BD3F8C4329A422AD938
:1038B000464BD3F8C002454BD3F8C412434BD3F860
:1038C000C422FB691A440023FEF7F0FEB861BB690D
:1038D000002B10D13D4BD3F8C0023C4BD3F8C4129F
:1038E0003A4BD3F8C8220023FEF7E0FE374B002204
:1038F000C3F8C02207E0354BD3F8C422FB69134458
:10390000324AC2F8C432314BD3F8C032002B2BD12B
:10391000FB693B623B6A7F2B01D880233B62386A9C
:10392000FEF712FE0346294AC2F8C032274BD3F8ED
:10393000C032002B10D1F869FEF706FE0346234A79
:10394000C2F8C032214BD3F8C032002B02D1F86943
:103950001CF0F8F9FB693B621C4A3B6AC2F8C432AE
:103960001A4B0022C3F8C822184BD3F8C022174BB9
:10397000D3F8C83213447B61144BD3F8C822FB69D7
:103980001344124AC2F8C832BA68F9687869B9F0C3
:1039900031FF7A69BB68134400221A707B69FB60AF
:1039A00000E000BFF968B868FFF72CFE78627B6A18
:1039B00018462837BD4680BD10320D10C4AA0D1020
:1039C00020320D109C490D1000320D10C831000836
:1039D00080B582B000AF78603960002239687868BD
:1039E000FFF72CFF034618460837BD4680BD80B55B
:1039F00084B000AF78603B1D1846FFF7CDFDF8603E
:103A0000FB681A697B6813441B7818461037BD465B
:103A100080BD80B584B000AF78603B1D1846FFF7CD
:103A2000BBFDF860FB685A697B6813441B78184635
:103A30001037BD4680BD80B584B000AF78603B1DB7
:103A40001846FFF7A9FDF8607A68FB68063253F85C
:103A5000223018461037BD4680BD80B584B000AF17
:103A6000786039603B1D1846FFF796FDF860FB68EB
:103A70005A697B6813441B781A463B681A607A6857
:103A8000FB68063253F8223018461037BD4680BD19
:103A900080B588B000AFF860B9607A603B60FB68C1
:103AA00000221A60BB6800221A607B6800221A603C
:103AB0003B6800221A60234B5B6AFB6130E0FB68C5
:103AC0001B685A1CFB681A60BB681A68FB69DB68D4
:103AD0001A44BB681A60FB695B69BB61FB695A6980
:103AE000FB69DB6813447B610AE07B681B68BA6989
:103AF000127813445A1C7B681A60BB690133BB619E
:103B0000BA697B699A42F0D3F869FFF7C7FA0246AF
:103B10003B681B681A443B681A60FB691B68FB61C1
:103B2000FB69002B03D0FB69074A9342C7D13B686E
:103B30001A687B681B681A443B681A6000BF20370C
:103B4000BD4680BDC831000890090E1080B584B014
:103B500000AF164B5B6AFB601CE0FB681833BB6070
:103B6000FB6803F11802FB68DB689B0013447B6071
:103B700009E0BB681B681A460D490E4800F0EAFED2
:103B8000BB680433BB60BA687B689A42F1D3FB68B8
:103B90001B68FB60FB68002B03D0FB68064A93425E
:103BA000DBD100BF1037BD4680BD00BFC831000863
:103BB00034320D100C4A0D1090090E1080B582B0F1
:103BC00000AF786039603B68002B01D101233B6076
:103BD0007B683A681A607B6800225A607B681B68C1
:103BE0001846FEF779FC02467B689A607B680022E3
:103BF0001A7300BF0837BD4680BD80B582B000AFE4
:103C0000786039603B68013319467868FFF7D6FF62
:103C10007B683A685A6000BF0837BD4680BD80B4F3
:103C200085B000AFF860B9607A60FB68BA681A6066
:103C3000FB6800225A60FB687A689A60FB68012280
:103C40001A7300BF1437BD465DF8047B704700004F
:103C500080B584B000AFF860B9607A60B968F86880
:103C6000FFF7ACFF7B68FA681A607B68024A5A600B
:103C700000BF1037BD4680BDC13F001080B582B087
:103C800000AF78607B681B7B83F00103DBB2002B05
:103C900007D07B689A687B681B6819461046FEF758
:103CA00043FD7B6800229A6000BF0837BD4680BD97
:103CB00080B584B000AF78601020FEF70DFCF8608E
:103CC0007968F868FFF77AFFFB6818461037BD4639
:103CD00080BD80B582B000AF78607B68002B12D0C9
:103CE0007B681B7B83F00103DBB2002B07D07B6872
:103CF0009A687B681B6819461046FEF715FD10216F
:103D00007868FEF711FD00BF0837BD4680BD000092
:103D100080B584B000AF786039607B681B7B002B76
:103D200003D0002110481CF025F87B6898687B6858
:103D300019687B681A683B6813441A46FEF778FCDA
:103D4000F8607B681B68FA681344BB607B681A687C
:103D50003B681A447B681A607B68FA689A60BB68A3
:103D600018461037BD4680BDC4AA0D1080B584B07A
:103D700000AF786039607B685A683B681A447B689A
:103D80001B689A421FD97B681B7B002B03D0002144
:103D90000F481BF0EFFF7B685A683B6813441033F1
:103DA00023F007030833FB607B6898687B681B6817
:103DB000FA681946FEF73CFCB8607B68FA681A603E
:103DC0007B68BA689A6000BF1037BD4680BD00BFEF
:103DD000C4AA0D1080B584B000AF7860396039682E
:103DE0007868FFF7C3FF7B689A687B685B68134459
:103DF000FB607B685A683B681A447B685A60FB68C2
:103E000018461037BD4680BD80B582B000AF7860DF
:103E10007B681A687B685B689A4203D101217868E5
:103E2000FFF776FF7B689A687B685B681344002223
:103E30001A707B689B6818460837BD4680BD80B500
:103E400084B000AF78600B46FB7001217868FFF703
:103E5000C1FFF860FB68FA781A7000BF1037BD46E2
:103E600080BD000080B586B000AF786039603B68E7
:103E70007F2B09D801217868FFF7ACFFB8603B6859
:103E8000DAB2BB681A707FE03B68B3F5006F18D2F6
:103E900002217868FFF79EFFF8603B689B09DBB260
:103EA00063F03F03DAB2FB681A703B68DBB203F0E1
:103EB0003F03DAB2FB68013362F07F02D2B21A70BC
:103EC00062E03B68B3F5803F24D203217868FFF7B6
:103ED00081FF38613B681B0BDBB263F01F03DAB272
:103EE0003B691A703B689B09DBB203F03F03DAB20F
:103EF0003B69013362F07F02D2B21A703B68DBB2D9
:103F000003F03F03DAB23B69023362F07F02D2B2C0
:103F10001A7039E03B68B3F5881F05D31C4B1D4A66
:103F2000A4211D48B6F082FE04217868FFF752FFF5
:103F300078613B689B0CDBB263F00F03DAB27B69FC
:103F40001A703B681B0BDBB203F03F03DAB27B69EC
:103F5000013362F07F02D2B21A703B689B09DBB278
:103F600003F03F03DAB27B69023362F07F02D2B220
:103F70001A703B68DBB203F03F03DAB27B690333AC
:103F800062F07F02D2B21A7000BF1837BD4680BD02
:103F9000B4490D10D4490D10C4490D1080B582B03C
:103FA00000AF786039603868B7F00AFC03461A46FB
:103FB0003968786800F004F800BF0837BD4680BD56
:103FC00080B584B000AFF860B9607A607968F8684D
:103FD000FFF7CCFEFB689A68FB685B6813447A685D
:103FE000B9681846B9F0F4F9FB685A687B681A4456
:103FF000FB685A6000BF1037BD4680BD80B586B0F3
:1040000000AFF860B9607A60FB685B687B61BA6892
:104010007B699A4201D97B69BB607968F868FFF7D0
:10402000A5FEFB689A68B9687B680B44D018FB68EA
:104030009A68BB68D1187A69BB68D31A1A46B9F076
:10404000C7F9FB685A687B681A44FB685A60FB68CA
:104050009A68BB68134418461837BD4680BD80B4C3
:1040600083B000AF786039607B685B683A689A42D9
:1040700003D97B6800225A6005E07B685A683B6878
:10408000D21A7B685A6000BF0C37BD465DF8047BCE
:10409000704780B584B000AFF860B9607A60FB68A3
:1040A0005B68BA689A4224D2BA687B681A44FB6893
:1040B0005B689A4203D3FB68BA685A601AE0FB68EF
:1040C0009A68BB68D018FB689A68B9687B680B442B
:1040D000D118FB685A68BB68D21A7B68D31A1A4693
:1040E000B9F076F9FB685A687B68D21AFB685A60A7
:1040F00000E000BF1037BD4680BD80B483B000AF84
:1041000078607B6803F00103002B14BF01230023B8
:10411000DBB218460C37BD465DF8047B704780B4AF
:1041200083B000AF78607B6803F00303002B0CBF03
:1041300001230023DBB218460C37BD465DF8047B33
:10414000704780B584B000AFF860B9607A60796874
:10415000B86853F007FB00BF1037BD4680BD80B57F
:1041600084B000AF786039603868B7F029FBF86038
:10417000FB68002B06D07B685B687A681068FA6879
:1041800039689847FB6818461037BD4680BD000067
:1041900080B58EB000AFF860B9607A603B600023F4
:1041A0007B6300233B637A6C7B68D31AFB6200233A
:1041B0007B623B685B0AFB7597F84030002B03D0AD
:1041C00097F84030202B04D1564B3B621023BB6242
:1041D00040E097F84030302B07D1FB7D002B04D115
:1041E000514B3B621023BB6234E097F84030302BD8
:1041F0002BD1FB7D5F2B04D14C4B3B620523BB6273
:1042000003E04B4B3B620423BB627B6CBA6A93FBBB
:10421000F2F2B96A01FB02F29B1A002B05D1FB6A8C
:104220000133FB627B6C01337B64BB6A5A1E7B6C7F
:10423000B96A93FBF1F1B86A00FB01F15B1AD31A7A
:104240001A463B6A13443B6204E007F140033B62B9
:104250000123BB623B6803F02003002B09D0FB6AFB
:10426000DA0F13445B107B63FA6A7B6BD31A3B63F0
:1042700009E03B6803F00103002B02D0FB6A3B63BB
:1042800001E0FB6A7B637B6B002B1ADD7A6A7B6B38
:1042900013447B6212E07B6BFB61FA69BB6A9A4252
:1042A00001DDBB6AFB61FB685B68FA681068FA694C
:1042B000396A98477A6BFB69D31A7B637B6B002B57
:1042C000E9DC7B68002B0AD0FB685B68FA68106841
:1042D0007A68B96898477A6A7B6813447B623B6B5B
:1042E000002B1ADD7A6A3B6B13447B6212E03B6B56
:1042F000BB61BA69BB6A9A4201DDBB6ABB61FB68FC
:104300005B68FA681068BA69396A98473A6BBB69A2
:10431000D31A3B633B6B002BE9DC7B6A18463837CA
:10432000BD4680BDE4490D10F4490D10004A0D1042
:10433000054A0D1080B58EB002AFF860B9607A60A2
:104340003B60002387F823307B68002B1AD0BB68C2
:10435000002B06DA2D2387F82330BB685B42BB6055
:1043600010E0FB6B03F00203002B03D02B2387F834
:10437000233007E0FB6B03F00403002B02D0202363
:1043800087F8233007F110031033FB62BB68002B62
:1043900006D1FB6A013BFB62FB6A30221A7027E000
:1043A0003A68BB68B3FBF2F101FB02F29B1ABB62F5
:1043B0003B68BA68B2FBF3F3BB60BB6A092B05DD4F
:1043C000BB6B0A3BBA6A1344BB6202E0BB6A303380
:1043D000BB62FB6A013BFB62BB6ADAB2FB6A1A7022
:1043E00007F11003FA6A9A4202D9BB68002BD7D1B1
:1043F00000237B62FB6B03F01003002B18D097F8AF
:104400002330002B24D0FA6B07F123010123019301
:1044100097F84030009313460122F868FFF7B8FE82
:1044200002467B6A13447B627B6C013B7B640FE03A
:1044300097F82330002B0BD007F11003FA6A9A4249
:1044400006D9FB6A013BFB6297F82320FB6A1A70CE
:1044500007F110031033FA6A9B1A1946FA6B7B6C4A
:10446000019397F84030009313460A46F96AF868BA
:10447000FFF78EFE02467B6A13447B627B6A184616
:104480003037BD4680BD0000B0B59AB004AFF860CB
:10449000B9607A603B607B68022B0ED07B68082B8A
:1044A0000BD07B680A2B08D07B68102B05D08C4B77
:1044B0008C4AED218C48B6F0B9FBB868FFF71DFEB9
:1044C000034683F00103DBB2002B15D0B868FFF779
:1044D00026FE034683F00103DBB2002B04D1BB6848
:1044E0001B68824A934207D0B8681DF09CFB0346C4
:1044F0005B0043F00103BB60BB6E03F02103002BA4
:104500000BD197F86C30302B07D17A6F3B6F9A4202
:1045100001DD7B6F3B6700237B6707F134037B651D
:10452000B86824F0A1FF0346002B14DBBB6E03F038
:104530000203002B05D07B6D5A1C7A652B221A7062
:1045400009E0BB6E03F00403002B04D07B6D5A1C02
:104550007A6520221A70BB6E03F00803002B36D058
:104560007B68022B0DD17B6D5A1C7A6530221A7044
:104570003B68DAB27B6D591C79650132D2B21A7090
:1045800025E07B68082B12D17B6D5A1C7A6530229E
:104590001A70BB6E03F08003002B18D03B68DAB2B0
:1045A0007B6D591C79650E32D2B21A700FE07B68B0
:1045B000102B0CD17B6D5A1C7A6530221A703B6827
:1045C000DAB27B6D591C79651732D2B21A707B6DE5
:1045D00000221A7007F134037A6DD31AFB6307F1D6
:1045E00034037B65BB6E5B1287F83B3007F1240315
:1045F0003B621023FB610023BB617B6F012B03DD5A
:10460000BB6E43F01003BB660023FB75BB6E03F06B
:104610001003002B22D07B683A68D2B207F118054C
:1046200007F11C0407F1200097F83B100391029258
:10463000002201920093BB682A46214624F01EFB0B
:1046400038653B6D1B782D2B1ED13B6D5A1C3A658E
:104650001B78FB75BB69013BBB6115E07B683A6861
:10466000D2B207F1180507F11C0407F1200097F8F2
:104670003B10039102927A6D01920093BB682A4627
:10468000214624F0FBFA38650023FB640023BB6459
:104690007B6F012B37DDBB697B647A6C7B6F9A4241
:1046A00001DA7B6F7B64BB6E03F01003002B09D033
:1046B000FB7D002B02D07B6C01337B647A6CFB6B3F
:1046C00013447B647A6C3B6F9A4215DABB6E03F03D
:1046D0000103002B0CD03A6F7B6CD31ABB640BE048
:1046E000144A0D10A04A0D10484A0D1044B40D1084
:1046F0003A6F7B6CD31AFB64302387F86C30BB6E47
:1047000023F00103BB6600233B64FB6C002B0DD040
:10471000FB6C019320230093002300223649F868A4
:10472000FFF736FD02463B6C13443B64BB6E03F05F
:104730001003002B29D0FB7D002B11D007F11701AE
:10474000012301930023009300230122F868FFF75F
:104750001FFD02463B6C13443B643B6F013B3B67D0
:10476000FB6B002B11D0FA6B012301930023009304
:104770000023796DF868FFF70BFD02463B6C13448C
:104780003B643A6FFB6BD31A3B677B6F012B01DDF8
:104790007B6F3B67BA69B96E3B6F019397F86C30DA
:1047A00000930B46396DF868FFF7F2FC02463B6C4C
:1047B00013443B64BB6C002B0DD0BB6C01932023D6
:1047C0000093002300220C49F868FFF7E1FC024641
:1047D0003B6C13443B643A6A07F124039A4205D0C8
:1047E0003B6AFA6911461846FDF79EFF3B6C184676
:1047F0005837BD46B0BD00BF5C4A0D1080B594B0BF
:1048000002AFF860B9603B601346FB71002387F884
:10481000473000233B643B6803F00203002B03D0C6
:104820002B2387F8473007E03B6803F00403002B95
:1048300002D0202387F84730FA7907F1140197F85E
:1048400047300193BB6D009313462122B86816F0E0
:10485000F7FCF86307F11403BB633B6803F4807350
:10486000002B30D007F114032E211846B6F040F982
:104870000346002B27D107F1140365211846B6F033
:1048800037F90346002B1ED107F114036E21184699
:10489000B6F02EF90346002B15D1FB6B5A1CFA63B8
:1048A00048333B442E2203F8342CFB6B5A1CFA632A
:1048B00048333B44302203F8342C07F11402FB6BDD
:1048C000134400221A703B6803F04003002B0DD004
:1048D000FB6B5A1CFA6348333B44252203F8342C03
:1048E00007F11402FB6B134400221A703B6803F0BB
:1048F0001003002B1AD03B7D2F2B17D8BB6B013335
:10490000BB6307F1140101230193002300930023EB
:104910000122F868FFF73CFC02463B6C13443B6401
:104920007B6D013B7B65FB6B013BFB63FA6B7B6D36
:10493000019397F8503000933B68B96BF868FFF724
:1049400027FC02463B6C13443B643B6C18464837DB
:10495000BD4680BD0EB480B585B000AF786007F16C
:104960002003BB60BA68F969786800F009F8F8605C
:10497000FB6818461437BD46BDE8804003B0704759
:1049800080B598B004AFF860B9607A600023FB642A
:10499000BB68BB6402E0BB6C0133BB64BB6C1B78BF
:1049A000002B03D0BB6C1B78252BF4D1BA6CBB68F1
:1049B0009A4210D9FB685B68FA681068B96CBA68EB
:1049C0008A1AB9689847BA6CBB68D31AFA6C134450
:1049D000FB64BB6CBB60BB681B78002B00F02182C2
:1049E000BB680133BB6000237B64202387F843301E
:1049F00028E0BB681B782D2B04D17B6C43F00103AE
:104A00007B641CE0BB681B782B2B04D17B6C43F0D0
:104A100002037B6413E0BB681B78202B04D17B6C02
:104A200043F004037B640AE0BB681B78302B0ED193
:104A30007B6C43F010037B64302387F84330BB6802
:104A40000133BB60BB681B78002BD2D100E000BFF4
:104A50000023FB630DE0FA6B13469B0013445B00DD
:104A60001A46BB681B781344303BFB63BB680133B9
:104A7000BB60BB681B782F2B03D9BB681B78392B15
:104A8000E9D94FF0FF33BB63BB681B782E2B2DD1C8
:104A9000BB680133BB60BB681B782A2B08D1BB689D
:104AA0000133BB607B681A1D7A601B68BB6318E02A
:104AB0000023BB630DE0BA6B13469B0013445B00FD
:104AC0001A46BB681B781344303BBB63BB68013399
:104AD000BB60BB681B782F2B03D9BB681B78392BB5
:104AE000E9D9BB6B002B01DA0023BB63BB681B78E1
:104AF0006C2B02D1BB680133BB60BB681B78002BF9
:104B000000F09181BB681B78453B332B00F26F812D
:104B100001A252F823F000BFA94D0010A94D0010CA
:104B2000A94D0010EF4D0010EF4D0010EF4D00109B
:104B3000EF4D0010EF4D0010EF4D0010EF4D001045
:104B4000EF4D0010294D0010EF4D0010EF4D0010FB
:104B5000EF4D0010EF4D0010EF4D0010EF4D001025
:104B6000EF4D0010294D0010EF4D0010EF4D0010DB
:104B7000EF4D0010EF4D0010EF4D0010EF4D001005
:104B8000EF4D0010EF4D0010EF4D0010E94B0010FD
:104B9000394C0010294D0010A94D0010A94D0010EE
:104BA000A94D0010EF4D0010EF4D0010EF4D00101B
:104BB000EF4D0010EF4D0010EF4D0010EF4D0010C5
:104BC000EF4D0010294D0010694C0010EF4D001002
:104BD000B54C0010EF4D0010294D0010EF4D0010A6
:104BE000EF4D0010294D00107B681A1D7A601B687C
:104BF000002B10D07A6CFB6B019397F84330009335
:104C0000134604228B49F868FFF7C2FA0246FB6C90
:104C10001344FB6401E17A6CFB6B019397F843301A
:104C20000093134605228449F868FFF7B1FA02465B
:104C3000FB6C1344FB64F0E07B681A1D7A601B6810
:104C4000DBB2FB757A6C07F11701FB6B019397F8E8
:104C50004330009313460122F868FFF799FA0246A1
:104C6000FB6C1344FB64D8E07B681A1D7A601B68F8
:104C70007B6207F110031946786AFEF7EEFE386290
:104C8000BB6B002B05DBBA6B3B699A4201D2BB6B55
:104C90003B613A69796CFB6B019397F84330009361
:104CA0000B46396AF868FFF773FA0246FB6C134447
:104CB000FB64B2E07B681A1D7A601B68BB62BB6B49
:104CC000002B13D0BB6A002B10D17A6CFB6B0193C5
:104CD00097F843300093134606225849F868FFF7C7
:104CE00057FA0246FB6C1344FB6496E0B86AB6F0D0
:104CF00067FD7863BB6B002B05DBBB6B7A6B9A425D
:104D000001D9BB6B7B637A6CFB6B019397F84330E3
:104D1000009313467A6BB96AF868FFF739FA0246CE
:104D2000FB6C1344FB6478E0BB681B78FB77FB7F6C
:104D3000702B02D0FB7F502B05D17B681A1D7A6047
:104D40001B683B6304E07B681A1D7A601B683B6349
:104D5000FB7F23F00F03DBB20F3BBB77FB7F642BA2
:104D600002D0FB7F752B02D10A23FB6201E01023E6
:104D7000FB62FB7F642B0CBF01230023DBB21946CF
:104D8000BB7FFA6B039297F8432002927A6C0192F0
:104D90000093FB6A0A46396BF868FFF7CBFA0246C4
:104DA000FB6C1344FB6438E07B68073323F0070394
:104DB00003F108027A60D3E9002310461946B5F0E2
:104DC000B3F80346BB61BB681A78796CBB6B02937E
:104DD000FB6B019397F8433000930B46B969F86871
:104DE000FFF70CFD0246FB6C1344FB6415E0BB6847
:104DF0001B78252B06D0124B124A40F26D21124827
:104E0000B5F014FFFB685B68FA6810680122B968A6
:104E10009847FB6C0133FB6400BFBB680133BB6088
:104E2000B6E500BF00E000BFFB6C18465037BD463A
:104E300080BD00BF604A0D10684A0D10704A0D1009
:104E4000784A0D10B04A0D10484A0D1080B485B054
:104E500000AF78607B685A1C7A601B78FB60FB6847
:104E600003F08003002B01D1FB6825E0FB6803F011
:104E70007F03FB604023BB6007E0BB68DB43FA684D
:104E80001340FB60BB685B08BB60FA68BB681340FB
:104E9000002BF2D109E0FB689A017B68591C79600C
:104EA0001B7803F03F031343FB607B681B7803F020
:104EB000C003802BEFD0FB6818461437BD465DF861
:104EC000047B704780B483B000AF78607B680133A7
:104ED0007B6002E07B6801337B607B681B7803F0BA
:104EE000C003802BF6D07B6818460C37BD465DF8B2
:104EF000047B704780B485B000AF786039600023D0
:104F0000FB600BE03B68013B3B603B681B7803F0B8
:104F1000C003802B02D0FB680133FB603A687B68DA
:104F20009A42EFD8FB6818461437BD465DF8047BFB
:104F3000704780B485B000AF786039600023FB60B3
:104F40007A683B681344BB600BE07B681B7803F016
:104F5000C003802B02D0FB680133FB607B68013308
:104F60007B607A68BB689A42EFD3FB6818461437B7
:104F7000BD465DF8047B704780B483B000AF7860B5
:104F80007B687F2B09D80A4A7B6813441B7803F09F
:104F90000203002B01D0012300E0002303F00103F2
:104FA000DBB218460C37BD465DF8047B704700BF86
:104FB000BC4A0D1080B483B000AF78607B687F2B53
:104FC00009D80A4A7B6813441B7803F00803002BB6
:104FD00001D0012300E0002303F00103DBB21846F7
:104FE0000C37BD465DF8047B704700BFBC4A0D100E
:104FF00080B483B000AF78607B687F2B09D80A4A01
:105000007B6813441B7803F00403002B01D00123B9
:1050100000E0002303F00103DBB218460C37BD4665
:105020005DF8047B704700BFBC4A0D1080B483B0AC
:1050300000AF78607B687F2B09D80A4A7B681344ED
:105040001B7803F04003002B01D0012300E0002374
:1050500003F00103DBB218460C37BD465DF8047B54
:10506000704700BFBC4A0D1080B483B000AF7860B9
:105070007B687F2B0CD80B4A7B6813441B7803F0AA
:105080000C03002B02D17B685F2B01D1012300E0D0
:10509000002303F00103DBB218460C37BD465DF870
:1050A000047B7047BC4A0D1080B483B000AF7860B9
:1050B0007B687F2B09D80A4A7B6813441B7803F06E
:1050C0001003002B01D0012300E0002303F00103B3
:1050D000DBB218460C37BD465DF8047B704700BF55
:1050E000BC4A0D1080B483B000AF78607B687F2B22
:1050F00009D80A4A7B6813441B7803F02003002B6D
:1051000001D0012300E0002303F00103DBB21846C5
:105110000C37BD465DF8047B704700BFBC4A0D10DC
:1051200080B582B000AF78607868FFF7BDFF0346B6
:10513000002B02D07B68203300E07B6818460837DC
:10514000BD4680BD80B582B000AF78607868FFF75B
:10515000C9FF0346002B02D07B68203B00E07B6840
:1051600018460837BD4680BD80B485B000AF786072
:105170007B68303BFB60FB68092B06D9FB6823F09A
:105180002003FB60FB68073BFB60FB681846143795
:10519000BD465DF8047B704780B487B000AF78608F
:1051A00039600023FB757A683B6813443B612EE04D
:1051B0007B681B78FB73FB7D002B0AD0FB7B03F025
:1051C000C003802B03D1FB7D013BFB751CE000235A
:1051D00027E0FB7BBF2B11D9FB7BF72B01D90023E9
:1051E0001FE0FB7BDB08DBB203F00603E52242FA9B
:1051F00003F3DBB203F00303FB7505E097F90F300F
:10520000002B01DA00230CE07B6801337B607A68B5
:105210003B699A42CCD3FB7D002B0CBF01230023BA
:10522000DBB218461C37BD465DF8047B704780B47E
:1052300083B000AF78607B685B68002B0CBF0123F4
:105240000023DBB218460C37BD465DF8047B70477F
:1052500080B483B000AF786039603B68023B3B604C
:1052600002E03B68023B3B603A687B689A4203D3AA
:105270003B681B88002BF4D03B689A1C7B68D31AD0
:105280005B1018460C37BD465DF8047B704780B450
:1052900087B000AFF860B9607A603B60BA683B687D
:1052A0009A4202D24FF0FF332FE0BA683B689A422D
:1052B00001D9012329E0BB685B00FA681344FB6055
:1052C000BB685B007A6813447B601AE0FB68023BB2
:1052D000FB60FB681B881A467B68023B7B607B682F
:1052E0001B88D31A7B617B69002B02DA4FF0FF33F6
:1052F0000BE07B69002B01DD012306E0BB68013B6D
:10530000BB60BB68002BE1D1002318461C37BD46AB
:105310005DF8047B704780B588B000AFF860B96075
:105320007A603B603B680F331B093B613B6803F0CD
:105330000F03FB61FB69002B01D11023FB617A682D
:105340003B69134403F10043013B5B00FA681344DB
:10535000FB607B6803F10043013B5B00BA681344C8
:10536000BB600023BB617B687B611AE0BB681B8864
:105370001A46BB691343BB61FB69C3F11003BA69E9
:1053800022FA03F39AB2FB681A80BB691B04BB6163
:105390007B69013B7B61FB68023BFB60BB68023BB6
:1053A000BB607B69002BE1D1FB69C3F11003BA69D3
:1053B00022FA03F39AB2FB681A803B69C3F1010336
:1053C0005B00FA681344FB603B69013B5B001A46D3
:1053D0000021F868B6F060FA7A683B6913447B6094
:1053E00002E07B68013B7B607B68002B09D07B6817
:1053F00003F10043013B5B00FA6813441B88002B58
:10540000EFD07B6818462037BD4680BD80B489B098
:1054100000AFF860B9607A603B603B681B097B6154
:105420003B6803F00F033B617A697B689A4201D3C2
:10543000002336E07B695B00BA681344BB607A687E
:105440007B69D31A7B607B68FB611EE0BB681B88AD
:10545000BB61FB69012B06D9BB6802331B881B04A7
:10546000BA691343BB61BA693B6922FA03F3BB61B2
:10547000BB699AB2FB681A80FB69013BFB61FB6860
:105480000233FB60BB680233BB60FB69002BDDD1DC
:10549000FB68023B1B88002B02D17B68013B7B60D1
:1054A0007B6818462437BD465DF8047B704780B49E
:1054B00087B000AFF860B9607A603B60FB683B6121
:1054C00000237B617A683B6AD31A7B601BE0BB6870
:1054D0001B881A463B681B8813447A6913447B6116
:1054E0007B699AB2FB681A807B691B0C7B613B6A03
:1054F000013B3B62FB680233FB60BB680233BB606D
:105500003B6802333B603B6A002BE0D115E0BB688F
:105510001B881A467B6913447B617B699AB2FB68DE
:105520001A807B691B0C7B617B68013B7B60FB689D
:105530000233FB60BB680233BB607B68002BE6D1A3
:105540007B69002B05D0FB689A1CFA607A6992B2DD
:105550001A80FA683B69D31A5B1018461C37BD469F
:105560005DF8047B704780B586B000AFF860B96025
:105570007A603B60FB683B6100237B617A683B6A31
:10558000D31A7B601BE0BB681B881A463B681B88EC
:10559000D21A7B6913447B617B699AB2FB681A80DB
:1055A0007B691B147B613B6A013B3B62FB680233F6
:1055B000FB60BB680233BB603B6802333B603B6A05
:1055C000002BE0D115E0BB681B881A467B691344A9
:1055D0007B617B699AB2FB681A807B691B147B61D3
:1055E0007B68013B7B60FB680233FB60BB68023376
:1055F000BB607B68002BE6D1F9683869FFF728FEAD
:10560000034618461837BD4680BD80B586B000AF4A
:10561000F860B9607A603B60FB687B6113E0BB684F
:105620001A887B681B8813409AB2FB681A803B6813
:10563000013B3B60FB680233FB60BB680233BB602D
:105640007B6802337B603B68002BE8D1F96878699E
:10565000FFF7FEFD034618461837BD4680BD80B5EE
:1056600088B000AFF860B9607A603B60FB68FB61AE
:10567000FB6A002B01D1002301E04FF6FF737B830F
:105680003B6B002B01D1002301E04FF6FF733B83FE
:105690007B6B002B01D1002301E04FF6FF73FB82EF
:1056A0003BE0BB681A883B8B53409BB21A463B6B6E
:1056B00013443B63BB6A013BBB627B68013B7B607D
:1056C000BA6A7B689A4207D83B689A1C3A601A8883
:1056D000FB8A53409BB200E0FB8A1A467B6B134463
:1056E0007B633A6B7B6B1A407B8B53409BB2FA6AAD
:1056F0001344FB62FB6A9AB2FB681A807B6B1B0C3B
:105700007B633B6B1B0C3B63FB6A1B0CFB62FB6804
:105710000233FB60BB680233BB607B68002BC0D1E7
:10572000FB6A002B05D0FB689A1CFA60FA6A92B2F9
:105730001A80F968F869FFF78BFD03461846203791
:10574000BD4680BD80B487B000AFF860B9607A60B4
:105750003B60FB687B617A683B6AD31A7B6013E02D
:10576000BB681A883B681B8813439AB2FB681A808F
:105770003B6A013B3B62FB680233FB60BB68023360
:10578000BB603B6802333B603B6A002BE8D10CE016
:10579000BB681A88FB681A807B68013B7B60FB68EA
:1057A0000233FB60BB680233BB607B68002BEFD128
:1057B000FA687B69D31A5B1018461C37BD465DF842
:1057C000047B704780B588B000AFF860B9607A603C
:1057D0003B60FB68BB610123FB61FB6A002B01D1CD
:1057E000002301E04FF6FF73FB823B6B002B01D1DE
:1057F000002301E04FF6FF73BB823AE0BB681A88D2
:10580000FB8A53409BB21A46FB6A1344FB62BB6A95
:10581000013BBB627B68013B7B60BA6A7B689A4252
:1058200007D83B689A1C3A601A88BB8A53409BB2DF
:1058300000E0BB8A1A463B6B13443B63FA6A3B6B3E
:105840001343DB439BB2FA691344FB61FB699AB2D1
:10585000FB681A803B6B1B0C3B63FB6A1B0CFB62F7
:10586000FB691B0CFB61FB680233FB60BB68023306
:10587000BB607B68002BC1D1FB69002B06D0084BB5
:10588000084A4FF4A1710848B5F0D0F9F968B86931
:10589000FFF7DEFC034618462037BD4680BD00BF3B
:1058A0003C4B0D10BC4B0D10484B0D1080B586B015
:1058B00000AFF860B9607A603B60FB687B617A6832
:1058C0003B6AD31A7B6013E0BB681A883B681B886D
:1058D00053409AB2FB681A803B6A013B3B62FB680B
:1058E0000233FB60BB680233BB603B6802333B6042
:1058F0003B6A002BE8D10CE0BB681A88FB681A8071
:105900007B68013B7B60FB680233FB60BB68023352
:10591000BB607B68002BEFD1F9687869FFF798FCD2
:10592000034618461837BD4680BD80B586B000AF27
:10593000F860B9607A603B60FB687B613AE0BB6805
:105940001B881A46BB6A134403F57F43FF33BB62CF
:105950003B6A013B3B627B68013B7B603A6A7B6848
:105960009A4207D83B689A1C3A601B8803F57F432C
:10597000FF3301E04FF6FF731A46FB6A1344FB62E4
:10598000BA6AFB6A53409BB27A6A13447B627B6AB1
:105990009AB2FB681A80FB6A1B0CFB62BB6A1B0C89
:1059A000BB627B6A1B0C7B62FB680233FB60BB68DB
:1059B0000233BB607B68002BC1D17B6A002B05D012
:1059C000FB689A1CFA607A6A92B21A80F968786960
:1059D000FFF73EFC034618461837BD4680BD80B42D
:1059E00087B000AFF860B96011461A460B46FB80DD
:1059F0001346BB80FB683B61BB887B6115E0FB689D
:105A00001B881A46FB8802FB03F37A6913447B6107
:105A10007B699AB2FB681A807B691B0C7B61BB684F
:105A2000013BBB60FB680233FB60BB68002BE6D127
:105A30007B69002B05D0FB689A1CFA607A6992B2E8
:105A40001A80FA683B69D31A5B1018461C37BD46AA
:105A50005DF8047B704780B48BB000AFF860B9602C
:105A60007A603B60FB683B6100237B6240E0FB683F
:105A70003B620023FB617B68BB61BB687B611DE00F
:105A80003B6A1B881A467B691B8819463B681B8842
:105A900001FB03F31344FA691344FB61FB699AB2F7
:105AA0003B6A1A80FB691B0CFB61BB69013BBB6154
:105AB0007B6902337B613B6A02333B62BB69002B2B
:105AC000DED1FB69002B05D03B6A9A1C3A62FA6969
:105AD00092B21A803A6A3B69D31A5B107B623B6BC5
:105AE000013B3B63FB680233FB603B6802333B6076
:105AF0003B6B002BBBD17B6A18462C37BD465DF84B
:105B0000047B704780B59AB000AFF860B9607A60E6
:105B10003B60FB68FB623B6FBB620023A7F866300B
:105B2000BB6819683B687A68F868FFF7B0FB786271
:105B30007B6A002B09D1BB6800221A603B6F0122EF
:105B40001A807B6F01221A6089E17B6A002B03DADD
:105B50007B6F00221A6082E13B6803F10043013B46
:105B60005B007A6813441B88A7F85E3009E0B7F839
:105B70005E305B00A7F85E30B7F866300133A7F8F7
:105B80006630B7F95E30002BF1DABB681B685B004A
:105B9000FA68134400221A80BB681B685A1CBB6851
:105BA0001A60FB68BB650023A7F856301BE0BB6D8D
:105BB0001B88FB82FA8AB7F8663002FA03F31AB23E
:105BC000B7F9563013431BB29AB2BB6D1A80FA8AEA
:105BD000B7F86630C3F1100322FA03F3A7F8563082
:105BE000BB6D0233BB65BB681B685B00FA6813447E
:105BF000BA6D9A42DBD33B6803F10043013B5B0083
:105C00007A6813441B881A46B7F8663002FA03F321
:105C10003B663B68012B11D93B6803F10043023B13
:105C20005B007A6813441B881A46B7F86630C3F1E4
:105C3000100322FA03F33A6E13433B66BB681B68FA
:105C400003F10043013B5B00FA681344FB60BB684F
:105C50001A683B68D21A7B6F1A607B6F1B6803F16E
:105C60000043013B5B003A6F13443B679CE0FB68D9
:105C70001B881B04FA68023A128813433B653A6D8D
:105C80003B6EB2FBF3F33B657B68FB640023BB64B4
:105C900000237B643B685B005B42FA6813443B640F
:105CA0002DE0FB6C1B881A46B7F866309A40BB6C37
:105CB0001B0C1343BB64BB6C9AB23B6D02FB03F33A
:105CC000FB617B6C9BB23A6C128813441A46FB69E9
:105CD0009BB2D31ABB61BB699AB23B6C1A807B6CD6
:105CE0001B141A46FB691B0CD31ABA69121413440D
:105CF0007B643B6C02333B64FB6C0233FB643A6CA9
:105D0000FB689A42CDD3FB681B881A467B6C134410
:105D10007B6437E07B68FB640023BB640023FB6388
:105D20003B685B005B42FA681344BB631FE0FB6C9B
:105D30001B881A46B7F866309A40BB6C1B0C13439D
:105D4000BB64BB6B1B881A46BB6C9BB21344FA6BDB
:105D50001344FB63FB6B9AB2BB6B1A80FB6B1B0C8F
:105D6000FB63BB6B0233BB63FB6C0233FB64BA6B3C
:105D7000FB689A42DBD37A6CFB6B13447B643B6D0C
:105D8000013B3B657B6C002BC4D13B6D9AB23B6FF2
:105D90001A803B6F023B3B67FB68023BFB60BB68C2
:105DA0001B685A1EBB681A60BB681B683A689A4237
:105DB000FFF45DAFBB681B6803F10043013B5B0070
:105DC000FA6A13447B6300237B861AE07B6B1B8893
:105DD0007B847A8CB7F8663042FA03F31AB2B7F9CB
:105DE000323013431BB29AB27B6B1A807A8CB7F8AD
:105DF0006630C3F1100302FA03F37B867B6B023B30
:105E00007B637A6BFB6A9A42E0D204E07B6F1B688B
:105E10005A1E7B6F1A607B6F1B68002B10D07B6F44
:105E20001B6803F10043013B5B00BA6A13441B8803
:105E3000002BEBD004E0BB681B685A1EBB681A60DD
:105E4000BB681B68002B0AD0BB681B6803F10043CA
:105E5000013B5B00FA6A13441B88002BEBD06837C8
:105E6000BD4680BD80B483B000AF78607A68137897
:105E700023F0010313707A68137823F00203137080
:105E80007A68136803F0030313607B6800225A608A
:105E90007B6800229A6000BF0C37BD465DF8047B2A
:105EA000704780B582B000AF786039607868FFF7DE
:105EB000D9FF3968786800F024F900BF0837BD467B
:105EC00080BD80B584B000AFF860B9607A603B6097
:105ED000FA68137823F001031370FA68137843F01B
:105EE000020313707B6823F04041FA68136861F382
:105EF0009F031360FB6800225A60FB68BA689A60CF
:105F00003968F86800F0FDF800BF1037BD4680BD65
:105F100080B582B000AF78607B68002B11D07B68C1
:105F20001B7803F00203DBB2002B0AD17B689A686E
:105F30007B681B68C3F39D035B0019461046FCF7A2
:105F4000F3FB00BF0837BD4680BD80B582B000AF0F
:105F500078607B68002B0ED07B689A687B681B6832
:105F6000C3F39D035B0019461046FCF7DDFB0C21D3
:105F70007868FCF7D9FB00BF0837BD4680BD00003C
:105F800080B582B000AF786039603B68012B01D8E2
:105F900002233B607B689B68002B07D07B681B68F3
:105FA000C3F39D031A463B68934224D97B681B7850
:105FB00003F00203DBB2002B06D0114B114A40F272
:105FC000AE211148B4F032FE7B6898687B681B688C
:105FD000C3F39D0359003B685B001A46FCF728FB9E
:105FE00002467B689A603B6823F040417A681368F8
:105FF00061F39F03136000BF0837BD4680BD00BF3B
:10600000584B0D10C84B0D10484B0D1080B584B087
:1060100000AF78607B681B6823F00303002B06D178
:10602000214B224A40F2B5212148B4F0FFFD0C205B
:10603000FCF752FAF8607B681B78C3F30003D9B20F
:10604000FA68137861F300031370FA68137823F089
:10605000020313707B681B68C3F39D01FA68136821
:1060600061F39F0313607B685A68FB685A60FB68A2
:106070001B68C3F39D035B001846FCF72DFA02462C
:10608000FB689A60FB6898687B6899687B681B6806
:10609000C3F39D035B001A46B7F0ACFBFB681846E0
:1060A0001037BD4680BD00BF684B0D10D84B0D109A
:1060B000484B0D1080B582B000AF786039603B6806
:1060C0005B6819467868FFF75BFF3B681B78C3F392
:1060D0000003D9B27A68137861F3000313703B6848
:1060E0005A687B685A607B6898683B6899683B6827
:1060F0005B685B001A46B7F07DFB00BF0837BD4602
:1061000080BD80B584B000AF786039603B68002BFB
:1061100008D17A68137823F0010313707B6800229A
:106120005A602CE002217868FFF72AFF3B68002BB9
:1061300008DA7A68137843F0010313703B685B4216
:10614000FB6006E07A68137823F0010313703B6864
:10615000FB607B6800225A600EE07B689A687B686F
:106160005B68581C796848605B001344FA6892B217
:106170001A80FB681B0CFB60FB68002BEDD110370D
:10618000BD4680BDB0B586B000AFF860C7E900235A
:106190000421F868FFF7F4FE97F82830002B11D09F
:1061A000D7E90023002B0DDAFA68137843F00103D6
:1061B0001370D7E900230021544261EB0305C7E9BE
:1061C000044508E0FA68137823F001031370D7E957
:1061D0000023C7E90423FB6800225A6016E0FB682D
:1061E0009A68FB685B68581CF96848605B00134458
:1061F0003A8A1A80D7E904014FF000024FF00003F9
:10620000020C42EA01420B0CC7E90423D7E904233C
:106210001343E4D100BF00BF1837BD46B0BD80B501
:106220008AB000AF786039603B68FB60FB7BC3F3EA
:10623000C013D9B27A68137861F300031370FB8935
:1062400003F4FF439BB2002B04D100217868FFF7D1
:1062500058FF8EE0FB8903F4FF439BB2B3F5FF4F79
:1062600004D100217868FFF74CFF82E0FB89C3F37B
:10627000C713DBB27F3BBB61BB69002B04DA002193
:106280007868FFF73EFF74E0BB69002B04D1012161
:106290007868FFF736FF6CE0BB691033002B00DA3B
:1062A0000F331B117B61BB695A4203F00F0302F0ED
:1062B0000F0258BF53423B61FB68C3F3160343F41C
:1062C0000003FB61BB69162B0BDC00233B62002340
:1062D0007B62BB69C3F11703FA6922FA03F3FB611E
:1062E0000BE03B69173B03F00F033B62BB69173BB5
:1062F000002B00DA0F331B117B627B69194678682B
:10630000FFF73EFE7A697B685A607B6A002B07D0F4
:106310007B6898687B6A5B001A460021B5F0BCFA7E
:106320003B6A002B21D0FA693B6A02FA03F07B68D2
:106330009A687B6A591C79625B00134482B21A80A6
:106340003B6AC3F11003FA6922FA03F3FB610CE024
:106350007B689A687B6A591C79625B001344FA690E
:1063600092B21A80FB691B0CFB617A6A7B699A42C4
:10637000EED100BF2837BD4680BD000080B588B093
:1063800000AFF860B9607A60FB70BB6A242B06D955
:10639000334B344A40F232313348B4F047FCBB68E7
:1063A000FB61BA687B6813447B617B68DB001B0977
:1063B00001331946F868FFF7E3FDFB78002B05D0A1
:1063C000FA68137843F00103137004E0FA68137855
:1063D00023F001031370FB6800225A6033E0FB696D
:1063E0001B78BB61BB692F2B06D9BB69392B03D83E
:1063F000BB69303BBB6112E0BB69402B06D9BB696E
:106400005A2B03D8BB69373BBB6108E0BB69602BE3
:106410001FD9BB697A2B1CD8BB69573BBB61BA69D2
:10642000BB6A9A4214D2FB689868FB685968BB6AD9
:106430009AB2BB699BB2FFF7D2FA0246FB685A6078
:10644000FB690133FB61FA697B699A42C7D300E0BB
:1064500000BFFA69BB68D31A18462037BD4680BD15
:10646000784B0D10E44B0D10484B0D1080B588B0E3
:1064700000AFF8607A603B600B46FB720123FB6162
:10648000FB7A002B07D07B68013B3A6813443B60E2
:106490004FF0FF33FB617B68DB000F331B091946AC
:1064A000F868FFF76DFD00237B8300237B61FA68AA
:1064B000137823F001031370FB6800225A602BE06D
:1064C0003B681B781A467B6902FA03F31AB2B7F9E4
:1064D0001A3013431BB27B837B6908337B61FB69F2
:1064E0003A6813443B607B68013B7B607B68002B10
:1064F00002D07B690F2BE3DDFB689A68FB685B6861
:10650000581CF96848605B0013447A8B1A8000239A
:106510007B837B69103B7B617B68002BE6D1FB684A
:106520009868FB689A68FB685B685B0013441946CF
:10653000FEF78EFE0246FB685A6000BF2037BD465C
:1065400080BD80B584B000AF786039603B681B784F
:10655000C3F30003DBB21A467B681B78C3F3000366
:10656000DBB2D31AFB60FB68002B01D0FB6815E09F
:106570007B6898687B6859683B689A683B685B6889
:10658000FEF785FEF8607B681B7803F00103DBB241
:10659000002B02D0FB685B42FB60FB68184610379B
:1065A000BD4680BD80B582B000AF786039607A6842
:1065B0003B689A4203D039687868FFF77BFD7A68B8
:1065C000137823F00103137000BF0837BD4680BD68
:1065D00080B582B000AF786039607A683B689A42D3
:1065E00003D039687868FFF765FD7B685B68002B2E
:1065F0000FD07B681B78C3F30003DBB2C3F1010348
:10660000DBB203F00103D9B27A68137861F30003B7
:10661000137000BF0837BD4680BD90B587B002AF8C
:10662000786039607A683B689A4203D03968786844
:10663000FFF740FD7B685B68002B10D10121786873
:10664000FFF79EFC7B689B6801221A807B68012211
:106650005A607A68137843F0010313703AE07B685C
:106660001B7803F00103DBB2002B16D07A68137895
:1066700023F0010313700123FB817B6898687B681A
:1066800099687B685A6807F10E0301240094FEF7AD
:106690006AFF02467B685A601CE07B685B680133D6
:1066A00019467868FFF76CFC0123BB817B6898680A
:1066B0007B6899687B685A6807F10C030124009491
:1066C000FEF7F5FE02467B685A607A68137843F05D
:1066D0000103137000BF1437BD4690BD80B584B070
:1066E00000AFF860B9607A60BB685B68002B02D0CD
:1066F0007B68002B04D1B968F868FFF7DBFC20E069
:10670000BB685A687B680F331B0913441946F86845
:10671000FFF736FCFB689868BB689968BB685A68E5
:106720007B68FEF7F8FD0246FB685A60BB681B7881
:10673000C3F30003D9B2FA68137861F3000313704E
:1067400000BF00BF1037BD4680BD90B58BB002AF13
:10675000F860B9607A60BB685B68002B02D07B6828
:10676000002B04D1B968F868FFF7A4FC79E0BB6896
:106770005B681946F868FFF703FCFB689868BB681C
:106780009968BB685A687B68FEF740FE0246FB6862
:106790005A60BB681B78C3F30003D9B2FA68137858
:1067A00061F300031370FB681B7803F00103DBB295
:1067B000002B56D07B681B09BB617B6803F00F037D
:1067C0007B6100237B820023FB610DE0BB689A683C
:1067D000FB695B0013441B88002B02D001237B82E2
:1067E0000BE0FB690133FB61BB685B68FA699A42A5
:1067F00003D2FA69BB699A42E8D3BB685B68BA699D
:106800009A4210D2BB689A68BB695B0013441B882C
:10681000194601227B6902FA03F3013B0B40002B6E
:1068200001D001237B827B8A002B1AD0FB685B6836
:10683000002B07D1FB689B6801221A80FB680122AC
:106840005A600EE0FB689868FB689968FB685A68B4
:1068500007F1120301240094FEF729FE0246FB68AB
:106860005A6000BF2437BD4690BD90B589B002AFD5
:10687000F860B9607A60BB689868BB6859687B68E3
:106880009A687B685B68FEF702FD0346002B05DA19
:10689000BB687B617B68BB607B697B60BB681B7886
:1068A000C3F30003DAB27B681B78C3F30003DBB2E7
:1068B0009A4218D1BB685B6801331946F868FFF744
:1068C0005FFBFB689868BB689968BB685A687B681F
:1068D0009C687B685B6800932346FEF7E8FD0246F0
:1068E000FB685A6016E0BB685B681946F868FFF7FA
:1068F00047FBFB689868BB689968BB685A687B6807
:106900009C687B685B6800932346FEF72CFE02467A
:10691000FB685A60BB681B78C3F30003DBB25AB252
:10692000FB685B68002B14BF01230023DBB25BB262
:1069300013405BB203F00103D9B2FA68137861F334
:106940000003137000BF1C37BD4690BD90B589B0E1
:1069500002AFF860B9607A600023FB75BB68986885
:10696000BB6859687B689A687B685B68FEF78FFC38
:106970000346002B07DABB683B617B68BB603B6961
:106980007B600123FB75BB681B78C3F30003DAB29D
:106990007B681B78C3F30003DBB29A4218D0BB6854
:1069A0005B6801331946F868FFF7EAFAFB689868F4
:1069B000BB689968BB685A687B689C687B685B6841
:1069C00000932346FEF773FD0246FB685A6016E00B
:1069D000BB685B681946F868FFF7D2FAFB689868ED
:1069E000BB689968BB685A687B689C687B685B6811
:1069F00000932346FEF7B7FD0246FB685A60FB682A
:106A00005B68002B05D1FA68137823F0010313703B
:106A10001DE0FB7D002B10D0BB681B78C3F3000387
:106A2000DBB2C3F10103DBB203F00103D9B2FA68B0
:106A3000137861F30003137009E0BB681B78C3F39C
:106A40000003D9B2FA68137861F30003137000BF32
:106A50001C37BD4690BDF0B58BB004AFF860B9608F
:106A60007A60BB685A687B685B689A4205D2BB68EB
:106A70007B617B68BB607B697B60BB681B7803F0D4
:106A80000103DBB2002B1FD17B681B7803F00103ED
:106A9000DBB2002B18D1BB685B681946F868FFF7BA
:106AA0006FFAFB689868BB6899687B689A687B682E
:106AB0005B68FEF7AAFD0246FB685A60FA68137825
:106AC00023F00103137054E0BB685B68013319467F
:106AD000F868FFF755FAFB689868BB689C68BB6864
:106AE0005D687B689E687B685B68BA681278C2F3F1
:106AF0000002D1B27A681278C2F30002D2B2914297
:106B00000CBF01220022D2B21146BA68127802F0FC
:106B10000102D2B2002A14BF01220022D2B23A608E
:106B20007A68127802F00102D2B2002A14BF012260
:106B30000022D2B203923A68029201910093334646
:106B40002A462146FEF78BFD0246FB685A60BB6869
:106B50001B78C3F30003DAB27B681B78C3F300032E
:106B6000DBB21340D9B2FA68137861F300031370F3
:106B700000BF00BF1C37BD46F0BDF0B58BB004AF01
:106B8000F860B9607A60BB685A687B685B689A4253
:106B900005D2BB687B617B68BB607B697B60BB683F
:106BA0001B7803F00103DBB2002B23D17B681B7839
:106BB00003F00103DBB2002B1CD1BB685B681946F4
:106BC000F868FFF7DDF9FB689868BB689968BB68EF
:106BD0005A687B689C687B685B6800932346FEF775
:106BE000B1FD0246FB685A60FA68137823F001038E
:106BF000137035E0BB685B6801331946F868FFF72E
:106C0000BFF9FB689868BB689968BB685C687B687B
:106C10009D687B685B68BA68127802F00102D2B2A4
:106C2000002A14BF01220022D2B216467A681278D6
:106C300002F00102D2B2002A14BF01220022D2B215
:106C40000292019600932B462246FEF7BBFD0246B8
:106C5000FB685A60FA68137843F00103137000BFB1
:106C600000BF1C37BD46F0BDF0B58BB004AFF86077
:106C7000B9607A60BB685A687B685B689A4205D2E3
:106C8000BB687B617B68BB607B697B60BB681B7892
:106C9000C3F30003DAB27B681B78C3F30003DBB2F3
:106CA0009A423BD1BB685B681946F868FFF768F900
:106CB000BB681B7803F00103DBB2002B11D1FB682A
:106CC0009868BB689968BB685A687B689C687B68F1
:106CD0005B6800932346FEF7E9FD0246FB685A60B5
:106CE00016E0FB689868BB689968BB685A687B685F
:106CF0009C687B685B68002503950025029500254C
:106D0000019500932346FEF710FE0246FB685A6089
:106D1000FA68137823F00103137036E0BB685B68F0
:106D200001331946F868FFF72BF9FB689868BB68D0
:106D30009968BB685C687B689D687B685B68BA68BB
:106D4000127802F00102D2B2002A0CBF0122002206
:106D5000D2B216467A68127802F00102D2B2002A44
:106D60000CBF01220022D2B20392029601220192AC
:106D700000932B462246FEF7D8FD0246FB685A6078
:106D8000FA68137843F00103137000BF1C37BD4647
:106D9000F0BD90B589B002AFF860B9607A60BB68A9
:106DA0005B68002B03D07B685B68002B04D100215B
:106DB000F868FFF7A6F95BE000237B61BA68FB681F
:106DC0009A420CD1B868FFF721F978617B69BB6002
:106DD0007A68FB689A420CD1BB687B6009E07A68EC
:106DE000FB689A4205D17868FFF710F978617B69F2
:106DF0007B60BB685A687B685B6813441946F86817
:106E0000FFF7BEF8FB689868FB681B68C3F39D0337
:106E10005B001A460021B4F03FFDFB689868BB6830
:106E20009968BB685A687B689C687B685B6800935C
:106E30002346FEF710FE0246FB685A60BB681B78CB
:106E4000C3F30003DAB27B681B78C3F30003DBB241
:106E50009A4205D1FA68137823F00103137004E015
:106E6000FA68137843F0010313707869FFF76DF83F
:106E70001C37BD4690BD80B586B000AFF860B960E4
:106E80007A60BB685B68002B06D07B681B7803F0D8
:106E90000103DBB2002B04D00021F868FFF731F9C1
:106EA00042E07B685B68002B04D10121F868FFF7A2
:106EB00028F939E0B868FFF7A9F878617868FFF732
:106EC000A5F838610121F868FFF71BF920E03B695C
:106ED0009B681B8803F00103002B04D07A69F968D2
:106EE000F868FFF756FF3B6998683B6999683B690A
:106EF0005A680123FEF78AFA02463B695A603B69E9
:106F00005B68002B09D07A6979697869FFF741FFDE
:106F10003B695B68002BDAD100E000BF7869FFF7BE
:106F200014F83869FFF711F81837BD4680BD80B5F1
:106F30008AB000AFF860B9607A603B60BB685B689C
:106F4000002B0FD07B681B7803F00103DBB2002B12
:106F500008D13B685B68012B09D13B689B681B88A3
:106F6000012B04D10021F868FFF7CBF857E001218D
:106F7000F868FFF7C6F87B685B68002B4ED0B868EE
:106F8000FFF744F878627868FFF740F8386207F155
:106F900014031846FEF766FF2EE03B6A9B681B88C9
:106FA00003F00103002B0BD07A6AF968F868FFF749
:106FB000F0FE07F114003B68FA68F96800F032F857
:106FC0003B6A98683B6A99683B6A5A680123FEF7F6
:106FD0001DFA02463B6A5A603B6A5B68002B10D080
:106FE0007A6A796A786AFFF7D4FE07F114003B6881
:106FF0007A6A796A00F016F83B6A5B68002BCCD19C
:1070000000E000BF07F114031846FEF781FF786A1D
:10701000FEF79BFF386AFEF798FF00E000BF2837B5
:10702000BD4680BDB0B58AB002AFF860B9607A6085
:107030003B603868FEF7FBF8034683F00103DBB2E0
:10704000002B06D1464B474A40F2CC514648B3F09C
:10705000EDFD7B685B6801331946F868FEF790FF29
:10706000FB6898687B685B6801335B001A46002107
:10707000B4F012FCFA68137823F001031370FB6874
:1070800000225A607B685B6801331946B868FEF7D6
:1070900077FF7968B868FFF70DF8BB689868BB6838
:1070A000191D3B689C683B685D68FB689B68FA68D3
:1070B0000432019200932B462246FEF723FDBB6863
:1070C0001B78C3F30003DBB25AB2BB685B68002BCA
:1070D00014BF01230023DBB25BB213405BB203F0A9
:1070E0000103D9B2BA68137861F3000313707B68A7
:1070F0001B78C3F30003DAB23B681B78C3F30003C9
:10710000DBB29A4227D0FB685B68002B14BF0123D7
:107110000023D9B2FA68137861F300031370B868DA
:10712000FEF785F8034683F00103DBB2002B12D093
:1071300007F114034FF0FF311846FEF7B2FE07F1D6
:1071400014031A46F968F868FFF78FFB3A68B968C4
:10715000B868FFF78AFB00BF2037BD46B0BD00BF4F
:10716000844B0D10F84B0D10484B0D1080B485B0BA
:1071700000AF78600023FB607B689A687B685B687F
:107180005B001344BB6008E0BB68023BBB60FB686C
:107190001B04BA6812881343FB607B689B68BA685B
:1071A0009A42F1D87B681B7803F00103DBB2002B15
:1071B00002D0FB685B42FB60FB6818461437BD4693
:1071C0005DF8047B704780B485B000AF78603960AB
:1071D0000023FB607B689A687B685B685B001344F4
:1071E000BB600EE0FB68B3F5004F01D300231BE04A
:1071F000BB68023BBB60FB681B04BA681288134380
:10720000FB607B689B68BA689A42EBD87B681B7806
:1072100003F00103DBB2002B02D0FB685B42FB6092
:10722000FA683B681A60012318461437BD465DF8BA
:10723000047B704780B58EB000AFF8607B600B4672
:10724000FB721346BB723B6C7B63FB7A002B03D053
:107250007A6B7B6813447B63FB689B683B6300230A
:10726000FB620023BB6201237B627B683B620123DC
:10727000FB77FB685B68BB6154E0FB6A1033FB6221
:10728000BB6A1A043B6B991C39631B881343BB62AE
:1072900042E0BB6AFB82FB681B7803F00103DBB2B0
:1072A000002B0CD0FB8ADB439BB2DBB29AB27B6A29
:1072B0009BB21344FB82FB8A1B0A9BB27B623B6A34
:1072C000002B0FD1FB7F002B05D0FB8ADBB2002BFC
:1072D00001D1012300E00023FB77FB7F03F00103D2
:1072E000FB7713E0FB7A002B07D07B6B013B7B63C2
:1072F000FB8ADAB27B6B1A7005E07B6B5A1C7A63EF
:10730000FA8AD2B21A703B6A013B3B62FB6A083BC5
:10731000FB62BB6A1B0ABB62FB6A072BB9DCBB6959
:10732000013BBB61BB69002BA7D1BB7A002B31D0DD
:107330003B6A002B2ED17B68002B2BD0FB7A002BD5
:1073400002D03B6C1B7804E07B68013B3A6C134431
:107350001B787B75FB7F002B15D097F91530DB432D
:10736000DBB2DB09DAB2FB681B7803F00103DBB2A6
:10737000002B14BF01230023DBB25340DBB2002BF0
:1073800001D0012300E00023FB77FB7F03F0010322
:10739000FB7713E0FB7A002B01D03B6C00E07B6BAA
:1073A000FA68127802F00102D2B2002A01D0FF215D
:1073B00000E000213A6A1846B4F06EFAFB7F1846E6
:1073C0003837BD4680BD000080B485B000AF78601E
:1073D0004FF00003FB607B689A687B685B685B002A
:1073E0001344BB6012E0BB68023BBB60D7ED037A7D
:1073F0009FED137A27EE877ABB681B8807EE903AD9
:10740000F8EEE77A77EE277AC7ED037A7B689B6818
:10741000BA689A42E7D87B681B7803F00103DBB2B5
:10742000002B05D0D7ED037AF1EE677AC7ED037A2A
:10743000FB6818461437BD465DF8047B704700BFF3
:107440000000804780B590B000AFF860B9607A6006
:10745000FB70FB6C002B06D1854B864A40F28A619B
:107460008548B3F0E3FBBB68012B02D9BB68202B36
:1074700006D9824B7F4A40F28B617F48B3F0D6FB3E
:10748000FB685B68FB61BB680A2B01D1032300E04A
:107490000423BB61FB6CFB63FB69002B1BD17B6886
:1074A000002B0CD007E07A68531C7B60FB6B591CE7
:1074B000F96312781A707B681B78002BF3D1FB6B91
:1074C0005A1CFA6330221A70FB6B00221A70FA6B96
:1074D000FB6CD31AC7E0FB695B001846FAF7FCFFA8
:1074E0007861FB689968FB695B001A467869B6F0B9
:1074F00081F9FB6CBB63FB695B007A6913443B63F6
:107500000023FB6215E0FB6A1B043A6B12881343ED
:10751000FB62FA6ABB68B2FBF3F39AB23B6B1A8068
:10752000FB6ABA68B3FBF2F2B96801FB02F29B1A7C
:10753000FB623B6B023B3B633A6B7B699A42E2D254
:10754000FB6A3033FB62FB6A392B04D9FA78FB6A99
:1075500013443A3BFB62FB6B5A1CFA63FA6AD2B2E1
:107560001A70012387F837307B693B630AE03B6B75
:107570001B88002B03D0002387F8373009E03B6BD2
:1075800002333B63FB695B007A6913443A6B9A42AE
:10759000EDD397F8373083F00103DBB2002B11D025
:1075A00097F84830002B0DD0FA6BBB6BD31ABA6931
:1075B0009A4207D1FB6B5A1CFA6397F848201A705D
:1075C000FB6BBB6397F8373083F00103DBB2002B12
:1075D00091D1FB695B0019467869FBF7A5F87B68D8
:1075E000002B14D07868B4F0EBF802467B681344A3
:1075F000BB6208E0BB6A013BBB62FB6B5A1CFA63CF
:10760000BA6A12781A70BA6A7B689A42F2D8FB6832
:107610001B7803F00103DBB2002B04D0FB6B5A1C78
:10762000FA632D221A70FB6C7B62FB6B013B3B62A1
:107630000FE07B6A1B78FB743B6A1A787B6A1A70CE
:107640003B6AFA7C1A707B6A01337B623B6A013BBE
:107650003B627A6A3B6A9A42EBD3FB6B00221A7058
:10766000FA6BFB6CD31A18464037BD4680BD00BF8D
:10767000984B0D10084C0D10484B0D10A44B0D10DD
:1076800080B485B000AF78607B68FB60FB689A6867
:10769000FB68DB689A4206D2FB689B68591CFA6853
:1076A00091601B7801E04FF0FF3318461437BD4658
:1076B0005DF8047B704780B584B000AF78607B686C
:1076C000FB60FB681B68002B0CD0FB681B68B3F1E8
:1076D000FF3F07D0FB685A68FB681B6819461046D5
:1076E000FBF722F81021F868FBF71EF800BF1037EF
:1076F000BD4680BD80B586B000AFF860B9607A60E5
:107700003B601020FAF7E8FE78617B693A681A60FE
:107710007B69BA685A607B69BA689A60BA687B68A4
:107720001A447B69DA60FB687A691A60FB68044A6C
:107730005A60FB68034A9A6000BF1837BD4680BD97
:1077400081760010B776001080B483B000AF786007
:107750007B6800225A6000BF0C37BD465DF8047B91
:10776000704780B483B000AF78607B685B68184670
:107770000C37BD465DF8047B704780B586B000AF1E
:10778000F860B9607A603B603A68B968F868FCF7FD
:1077900035FC78613A6879687869B6F02BF800BFF3
:1077A0001837BD4680BD80B483B000AF78607B6879
:1077B0001B69002B0CBF01230023DBB218460C37DA
:1077C000BD465DF8047B704780B483B000AF78603D
:1077D0007B681B690A2B0CBF01230023DBB2184610
:1077E0000C37BD465DF8047B704780B483B000AFB2
:1077F00078600B46FB707B681A69FB789A420CBF75
:1078000001230023DBB218460C37BD465DF8047B2C
:10781000704780B483B000AF78600B46FB701346AE
:10782000BB707B681A69FB789A4204D07B681A693E
:10783000BB789A4201D1012300E0002303F0010349
:10784000DBB218460C37BD465DF8047B704780B448
:1078500083B000AF7860084611461A460346FB70B5
:107860000B46BB7013467B707B681A69FB789A42A3
:1078700009D07B681A69BB789A4204D07B681A6980
:107880007B789A4201D1012300E0002303F0010339
:10789000DBB218460C37BD465DF8047B704780B4F8
:1078A00083B000AF7860084611461A460346FB7065
:1078B0000B46BB7013467B707B681A69FB789A4253
:1078C0000ED07B681A69BB789A4209D07B681A6926
:1078D0007B789A4204D07B681A693B7C9A4201D13A
:1078E000012300E0002303F00103DBB218460C374C
:1078F000BD465DF8047B704780B483B000AF78600C
:107900000B46FB707B681B7DFA789A420CBF012303
:107910000023DBB218460C37BD465DF8047B704788
:1079200080B483B000AF78600B46FB701346BB7029
:107930007B681B7DFA789A4204D07B681B7DBA78FD
:107940009A4201D1012300E0002303F00103DBB2DE
:1079500018460C37BD465DF8047B704780B483B091
:1079600000AF78600B46FB701346BB707B685B7D95
:10797000FA789A4204D07B685B7DBA789A4201D14A
:10798000012300E0002303F00103DBB218460C37AB
:10799000BD465DF8047B704780B483B000AF78606B
:1079A0000B46FB701346BB707B681A69FB789A42E2
:1079B00006D17B681B7DBA789A4201D1012300E091
:1079C000002303F00103DBB218460C37BD465DF817
:1079D000047B704780B582B000AF78607B681B691C
:1079E0001846FDF7C9FA034618460837BD4680BD5C
:1079F00080B582B000AF78607B681B691846FDF7E0
:107A0000D9FA034618460837BD4680BD80B582B016
:107A100000AF78607B681B691846FDF7E9FA0346FA
:107A200018460837BD4680BD80B582B000AF78608B
:107A30007B681B7D1846FDF7DBFA034618460837BE
:107A4000BD4680BD80B485B000AF78607B681B7D8B
:107A500043F02003DBB2FB60FB68622B05D0FB68C0
:107A60006F2B02D0FB68782B01D1012300E00023AB
:107A700003F00103DBB218461437BD465DF8047B02
:107A8000704780B483B000AF78607B681B7D2F2B7C
:107A900005D97B681B7D372B01D8012300E000232B
:107AA00003F00103DBB218460C37BD465DF8047BDA
:107AB000704780B584B002AF7860222227217868B1
:107AC000FFF7A7FE0346002B42D1662300936223F3
:107AD000752272217868FFF7E2FE0346002B07D07B
:107AE000222227217868FFF71BFF0346002B2FD1A6
:107AF000662272217868FFF74FFF0346002B07D1FB
:107B0000722266217868FFF747FF0346002B07D0F3
:107B1000222227217868FFF721FF0346002B17D187
:107B2000622272217868FFF737FF0346002B07D1E6
:107B3000722262217868FFF72FFF0346002B09D0DD
:107B4000222227217868FFF709FF0346002B01D086
:107B5000012300E0002303F00103DBB218460837DD
:107B6000BD4680BD80B582B000AF78607868FFF711
:107B70003FFF0346002B07D17B681B695F2B03D0B7
:107B80007B681B697F2B01D9012300E0002303F0F0
:107B90000103DBB218460837BD4680BD80B582B010
:107BA00000AF78607868FFF7DDFF0346002B05D152
:107BB0007868FFF72BFF0346002B01D0012300E07C
:107BC000002303F00103DBB218460837BD4680BD31
:107BD00080B584B000AF78607B681B690A2B08D140
:107BE0007B689B695A1C7B689A617B680122DA6119
:107BF00011E07B681B69092B08D17B68DB690733BF
:107C000023F007035A1C7B68DA6104E07B68DB69B8
:107C10005A1C7B68DA617B681B7D1A467B681A6197
:107C20007B685A7D7B681A757B681B6E002B18D0A9
:107C30007B689A6D7B681B6E581C796808661344D4
:107C40001B78FB607B681A6E7B685B6D9A421BD366
:107C50007B6850331846FFF777FD7B6800221A6671
:107C600012E07B689B687A68526810469847F86013
:107C7000FB68B3F1FF3F02D10023FB6004E0FB6827
:107C8000002B01D10123FB607B681B7D0D2B06D1EE
:107C90007B680A221A75FB680A2B00D1C4E7FB68CF
:107CA000002B09D17B681B7D002B05D07B681B7DD9
:107CB0000A2B01D00A23FB60FB68DAB27B685A7595
:107CC00000BF1037BD4680BD80B582B000AF786080
:107CD00039607B68DA6A7B689B6A9A4214D37B6856
:107CE000186B7B689B6A59007B689B6A08335B0052
:107CF0001A46FAF79DFC02467B681A637B689B6A0A
:107D000003F108027B689A627B681A6B7B68DB6A06
:107D1000581C7968C8625B0013443A6892B21A80B2
:107D200000BF0837BD4680BD80B483B000AF786027
:107D30007B681A6B7B68DB6A03F10043013B5B00E5
